:020000040000FA
:0600000025EF22F01200C2
:0440000025EF22F096
:06402A00010084440000C7
:08403000AF0000000A000000CF
:084038000A0E596E0C6E63C004
:1040400007F033EC22F00750300FE66E32EC08F048
:10405000E5520A0E596E0C6E63C007F033EC22F085
:104060000350300FE66E32EC08F0E552200EE66E9B
:1040700032EC08F0E5520A0E596E0C6E64C007F07F
:1040800033EC22F00750300FE66E32EC08F0E552C8
:104090000A0E596E0C6E64C007F033EC22F0035028
:1040A000300FE66E32EC08F0E552200EE66E32EC90
:1040B00008F0E55265C0E6FF32EC08F0E55266C054
:1040C000E6FF32EC08F0E55267C0E6FF32EC08F09C
:1040D000E55268C0E6FF32EC08F0E55269C0E6FF41
:1040E00032EC08F0E5526AC0E6FF32EC08F0E55227
:1040F0006BC0E6FF32EC08F0E5526CC0E6FF32EC34
:1041000008F0E5526DC0E6FF32EC08F0E5526EC0F3
:10411000E6FF32EC08F0E5521200D9CFE6FFE1CF1E
:10412000D9FF00010C0E606F0A0E616F626B630EA7
:10413000636F080E646FFD0EDBCFE9FFFE0EDBCF71
:10414000EAFFEF50300F656F010EE76EFD0EDBCF1B
:10415000E9FFFE0EDBCFEAFFE750E926000EEA2278
:10416000EF50300F666F020EE76EFD0EDBCFE9FFFA
:10417000FE0EDBCFEAFFE750E926000EEA22EF5001
:10418000300F676F030EE76EFD0EDBCFE9FFFE0E0B
:10419000DBCFEAFFE750E926000EEA22EF50300FAE
:1041A000686F040EE76EFD0EDBCFE9FFFE0EDBCF7E
:1041B000EAFFE750E926000EEA22EF50300F696F60
:1041C000060EE76EFD0EDBCFE9FFFE0EDBCFEAFF4A
:1041D000E750E926000EEA22EF50300F6B6F050E14
:1041E000E76EFD0EDBCFE9FFFE0EDBCFEAFFE75007
:1041F000E926000EEA22EF50300F6A6F070EE76ED5
:10420000FD0EDBCFE9FFFE0EDBCFEAFFE750E9262C
:10421000000EEA22EF50300F6C6F080EE76EFD0EB5
:10422000DBCFE9FFFE0EDBCFEAFFE750E926000E09
:10423000EA22EF50300F6D6F090EE76EFD0EDBCFF7
:10424000E9FFFE0EDBCFEAFFE750E926000EEA2287
:10425000EF50300F6E6FE552E7CFD9FF1200D9CF84
:10426000E6FFE1CFD9FF020EE126F50EE66E58EC2F
:1042700008F0E552DF6EDF50110A29E0100A36E13E
:10428000600EE66E000EE66E52EC08F0E552E55266
:10429000E76E010EE7CFDBFFDB5023E1630E000189
:1042A000645D1FE1C00EE66E30EC08F0E552C4DE3E
:1042B00026EC08F00F01D08E0F01F28CF28E600E0A
:1042C000E66E000EE66E28EC08F0E55209D03A0ED4
:1042D000E66E5AEC08F0E552360EE66E5AEC08F03F
:1042E000E552340EE66E5AEC08F0E552020EE15C3F
:1042F00002E2E16AE552E16EE552E7CFD9FF120032
:10430000D9CFE6FFE1CFD9FF340EE126010EDB80E5
:10431000DB92DB94DB960F0148691F0E496F50EC6E
:1043200008F0360EE66E5AEC08F0E55220EC08F084
:104330000001A051596E5A6A5A3426E25950C708F2
:10434000000E5A5421E2AF0EE66E000EE66EE5DE78
:10435000E552E552800EE66E30EC08F0E5526CDE78
:104360000001A06B360EE66E5AEC08F0E5523B0EEB
:10437000E66E5AEC08F0E552600EE66E000EE66E50
:0C43800054EC08F0E552D1D76ADFD0D72A
:04438C002A0EF66E91
:10439000400EF76E000EF86E00010900F550AA6F8E
:1043A0000900F550AB6F03E1AA6701D03DD00900C9
:1043B000F550A56F0900F550A66F0900F550A76FDD
:1043C00009000900F550E96E0900F550EA6E090090
:1043D00009000900F550A86F0900F550A96F090000
:1043E0000900F6CFACF0F7CFADF0F8CFAEF0A5C036
:1043F000F6FFA6C0F7FFA7C0F8FF0001A85302E12F
:10440000A95307E00900F550EE6EA807F8E2A907E6
:10441000F9D7ACC0F6FFADC0F7FFAEC0F8FF0001A2
:0A442000AA07000EAB5BBFD7120025
:06442A00C00EF36E00EE6F
:1044300000F00E0E01D81200EA6002D0EE6AFCD73E
:0A444000F350E9601200EE6AFCD7A9
:06444A001DEE00F02DEE56
:1044500000F0F86A0F9CC6EC21F041EC22F080ECF1
:0644600021F0FBD7120061
:0A446600036A080EE76ED8900736CF
:1044700003360C50035C02E3036E072AE72EF7D7DE
:02448000120028
:02448200120026
:0A4484000000010100000101000129
:01FFF800AA5E
:01FFF900F314
:01FFFA009571
:01FFFB00F90C
:01FFFC0043C1
:01FFFD00F80B
:01FFFE00C042
:01FFFF00F110
:00000001FF
