:020000040000FA
:0600000090EF2DF012004C
:0440000090EF2DF020
:06402A000300AF5B000083
:104030009800000005000000A75B0000A100000040
:1040400001000000AC5B00009D00000003000000C8
:1040500064EC25F0FB0EDBCFF3FFDB06F350000929
:104060000AE0B2EC25F0FA0E1DEC26F0F3E15A1C42
:10407000F1E1010E01D0000E93EF25F064EC25F084
:104080003B0EE12402E3E168E652E16E010EDB6AD9
:10409000020EDB6AF90EDBCFF6FFFA0EDBCFF7FF7D
:1040A000FB0EDBCFF8FF0800F550DF6EDF5002E1BA
:1040B000B7EF24F0250EDF5C02E0AAEF24F0030E38
:1040C000DB6A040EDB6A050EDB6A060EDB6A070E8E
:1040D000DB6ACCEC24F02D0EDF5C0CE02B0EDF5CF9
:1040E00009E0200EDF5C06E0230EDF5C03E0300E0B
:1040F000DF5C1AE1DF50300A14E0130A0FE0030A14
:104100000AE00B0A05E0060AE4E1030EDB80E1D7D2
:10411000030EDB82DED7030EDB84DBD7030EDB86E8
:10412000D8D7030EDB88D5D72A0EDF5C1BE1C8EC9D
:1041300024F016EC25F010E0030EDB80066807681B
:10414000130EDBCF0BF0140EDBCF0CF00DEC2DF0CB
:10415000040E04C0DBFF03D0130EFFEC24F0CCEC04
:1041600024F00BD0090EDB6A6DEC25F003E0E1ECE6
:1041700025F0FAD7090EFFEC24F0030EDBB0DB9834
:104180002E0EDF5C1BE1CCEC24F02A0EDF5C0BE191
:10419000C8EC24F016EC25F003E1130E51EC25F0E9
:1041A000CCEC24F00BD0090EDB6A6DEC25F003E0BB
:1041B000E1EC25F0FAD7090E51EC25F0680EDF5C32
:1041C00007E1CCEC24F0680EDF5C1DE1030E18D093
:1041D000740EDF5C17E07A0EDF5C14E0480EDF5CE3
:1041E00006E0540EDF5C03E05A0EDF5C02E1020ED3
:1041F00007D06C0EDF5C03E06A0EDF5C04E1010EA9
:10420000A4EC25F0C9DBDF506E0A01E17FD31E0A62
:1042100001E192D1200A01E18FD13F0A01E149D1A8
:104220001A0A01E146D10D0A01E143D1200A01E158
:1042300040D13A0A01E13DD1200A01E13AD1260AF2
:1042400001E135D10D0A01E132D11A0A01E1D9D0DB
:10425000200A4AE0300A1FE0460A0EE0250A01E083
:1042600083D3D950F90FE96EFF0EDA20EA6E010E02
:10427000EE5E000EEE5AEE5AB2EC25F0250EE66E1A
:1042800095DB03E15A1C01E169D3AEEC25F001E2B4
:104290006BD3DB2A69D3080EDB6A040EDB500108FE
:1042A00006E2040EDB0476EC25F0DB508BDB080E17
:1042B000DB5009E0030EDB50010B05E172DB01E08E
:1042C0004DD3080EDB6A64DBEFCFDFFF26EC26F070
:1042D00003E15A1C01E142D3AEEC25F001E3DB2AF5
:1042E00060DB01E141D33AD3070EDB5002080FE156
:1042F000F2EC25F0030EB9EC25F00E0EEECFDBFF4D
:104300000F0EEECFDBFF100EEECFDBFF20D0F70E4F
:10431000DBCF5CF0F80EDBCF5DF0020E5C5E000ED2
:104320005D5AF70E5CC0DBFFF80E5DC0DBFF5CC0C2
:10433000E9FF5DC0EAFFA9EC25F05B6A0E0E59C0EB
:10434000DBFF0F0E5AC0DBFF100E5BC0DBFF0E0E53
:10435000DBCFE6FF0F0EDBCFE6FF100EDBCFE6FF75
:10436000C9EC2BF0E552E552E552130E05C0DBFF18
:10437000140E06C0DBFF060EDB5005E0130EEDEC5D
:1043800025F001E26ADB11EC26F002E2130E37DBC6
:10439000D4EC25F006E0040EEDEC25F002E2050E6B
:1043A0002EDB030EDBB005D0FCDA01E0D7D2080E1D
:1043B000DB6A090EDB6A0E0EDBCFF6FF0F0EDBCFDA
:1043C000F7FF100EDBCFF8FF0800F550DF6EDF506F
:1043D00014E017EC26F011E226EC26F003E15A1C5B
:1043E00001E1BCD2BBDB01E3DB2A090EDB2AD95099
:1043F0000E0FE96E000ECBDBE7D7D3DA01E1B4D2C2
:10440000ADD2C6DA110EEECFDBFF120EEDCFDBFF21
:10441000110EDBCFE6FF120EDBCFE6FFBBEC2BF07D
:10442000E552E552130EF3CFDBFF140EF4CFDBFFA2
:10443000060EDB5004E0130ED0DB01E20EDB11ECC4
:1044400026F002E2130EDBDAAFDB05E0040EC5DB7B
:1044500002E2050ED4DA030EDBB005D0A2DA01E0E9
:104460007DD2080EDB6A090EDB6A110EDBCFE9FF95
:10447000120EDBCFEAFFEFCFDFFFDF5014E0D7DB18
:1044800012E2E4DB03E15A1C01E168D267DB01E3DD
:10449000DB2A090EDB2A110EDB2ADBCFE9FF120E25
:1044A000E8E3DB2AE6D77DDA01E15ED257D2030EDC
:1044B000DB8E070EDB0410E195DB040E5ADB0A0EDF
:1044C000EECFDBFF0B0EEECFDBFF0C0EEECFDBFFF4
:1044D0000D0EEECFDBFF6CD0070EDB5003082CE196
:1044E000030EDBAE0DD0B2DA020E76DAEFCF59F062
:1044F0005A6A5B6A5C6A59AE39D05A685B6835D0D3
:10450000F70EDBCF5AF0F80EDBCF5BF0020E5A5EEF
:10451000000E5B5AF70E5AC0DBFFF80E5BC0DBFFE4
:104520005AC0E9FF5BC0EAFFEFCF59F00A0E59C04D
:10453000DBFF0B0EDB6A38D0070EDB50020809E107
:10454000030EDBAE04D059DB5BAE10D00ED055DBD2
:104550000DD0030EDBAE12D079DA020E3DDAF9DAB5
:104560005B6A5C6A5AAE02D05B685C68E2DA0C0E89
:104570005BC0DBFF0D0E5CC0DBFF1AD0F70EDBCF9C
:104580005BF0F80EDBCF5CF0020E5B5E000E5C5A57
:10459000F70E5BC0DBFFF80E5CC0DBFF5BC0E9FF22
:1045A0005CC0EAFFD6DAC5DA0C0EDB6A0D0EDB6AF8
:1045B000060EDB5005E1010EF36E050EF3CFDBFFB7
:1045C000150EDB6A160EDB6AD950370F596E000ED6
:1045D000DA205A6E390E59C0DBFF3A0E5AC0DBFFA3
:1045E000380EDB6A080EDB6A0A0EAEDADF50780A94
:1045F00012E0200A10E0280A0CE0200A0AE03F0A34
:1046000006E00D0A02E0200A08E1020E05D0080EBD
:1046100003D0080EDF26100E97DA030EDBBE02D0A1
:10462000DB92DB94DB50800B24E08ADAD890030E17
:10463000EB50000A08E6000EEE5C000EEE58000E8D
:10464000EE58000EEE5815E213DA09680A680B6896
:104650000C68D5EC2CF00A0E00C0DBFF0B0E01C07D
:10466000DBFF0C0E02C0DBFF0D0E03C0DBFF2D0EC7
:1046700008D0030EDBA202D02B0E03D0DBA408D09F
:10468000200EF36E170EF3CFDBFF150EDB2A02D0E0
:10469000170EDB6A050EDB5003E1B7D901E189D0C3
:1046A000900E596E5B0E5A6E000E5B6E070EDBCFDE
:1046B0005CF05D6A5E6A5F6A5CC009F05DC00AF02A
:1046C0005EC00BF05FC00CF0D3D93AEC2DF059501E
:1046D0000024F36E5A500120F46E5B500220F86EF5
:1046E000F4CFF7FFF3CFF6FF0800090EF5CFDBFF9D
:1046F000580EDF5C0FE1610EF36E090E7BD90AE301
:10470000200E596E090EDBCFE7FF5950E75E090E08
:10471000E7CFDBFF070EDBCF59F05A6A5B6A5C6AB2
:104720000FDA59C009F05AC00AF05BC00BF05CC048
:104730000CF0EECF04F0EECF05F0EECF06F0EFCFA9
:1047400007F03AEC2DF007C0EDFF06C0EDFF05C005
:10475000EDFF04C0EFFF390EDBCFE9FFDB063A0EB9
:10476000DBCFEAFF01E2DB06090EDBCFEFFF150E20
:10477000DB2A4BD995E1030EDBA61DD06F0EDF5C63
:1047800006E1C1D918E3150EDB285BDA14D0780EE8
:10479000DF5C09E0580EDF5C06E0620EDF5C03E0E0
:1047A000420EDF5C08E1020EF36E160EF3CFDBFF64
:1047B00002D0150EDB6A030EDB50100B0EE0040E68
:1047C000DBCF59F0050EDB50D880595406E2060EB7
:1047D000DB5003E1040EDB5034DA95D90AE2050E12
:1047E000DBCFE7FF150EDB50E75E050EE7CFDBFF03
:1047F00002D0050EDB6A040EDBCF59F0160E45D948
:10480000D880595414E2160EDBCFE6FF150EDBCF2D
:10481000E6FF040EDBCFE6FF050EDB50E552E75C5A
:10482000E552D880E754E552D880E7545FD9030EAB
:10483000DB50010B0BE1080EDB5008E0B2D801E0C1
:104840008DD0080EDB50BED8080EDB6A170EDB5089
:1048500007E088D9170EF1D903E15A1C01E17ED097
:10486000160EDB5016E07ED9300EE66E9FD802E1C0
:104870005A1C74E077D9DFCFE6FF93EC2CF0E552B9
:10488000E552E552F4CF5AF00001F31C02E15A1C44
:1048900065E0050EDBCF59F0160EDB50D880595479
:1048A00009E2050EDBCFE7FF160EDB50E75E050ED3
:1048B000E7CFDBFF300EE66E050ECBD94FE1390EA8
:1048C000DB2ADBCFE9FF3A0E01E3DB2ADBCFEAFF8D
:1048D000090EEFCFDBFFDB500EE044D9090EADD956
:1048E00002E15A1C3BE0390EDB2ADBCFE9FF3A0E2E
:1048F000EDE3DB2AEBD755D831E1160EDBCFE6FF2F
:10490000080EC3D8E552E7245DD82ED0070EDB5041
:10491000030A1CE0010A14E0030A07E07BD9DBCF9D
:10492000EEFF020EDBCFEDFF1FD0F5D85E6A5CAE66
:1049300002D05D685E682CD8BCD85EC0EEFF14D093
:10494000EAD85CBE5D6824D8B4D80ED063D9DBCF7A
:10495000EFFF0AD07BD905E15A1C03E1F368F46844
:1049600010D0FCD801E3DB2A79D953EF20F0010EF7
:10497000DBCF59F0020EDBCF5AF059C0F3FF5AC01B
:10498000F4FF3B0EE15C02E2E16AE552E16ECBD05E
:1049900029D9020EB9EF25F061D90800F550DF6E74
:1049A0001200200EE66E080E29EF26F093EC2CF094
:1049B000E552E552E552F3CF59F0F4CF5AF0000139
:1049C000F31C1200596E5A6AD950010F4DD9595033
:1049D000EE265A50ED2212005D5E000E5E5AF70E72
:1049E0005DC0DBFFF80E5EC0DBFF5DC0E9FF5EC0AF
:1049F000EAFF1200DBCFF4FFF350F45C1200DB504F
:104A0000E76E040EE7CFDBFF12000A0EDBCF59F092
:104A10000B0EDBCF5AF00C0EDBCF5BF00D0EDBCFB5
:104A20005CF059505A105B105C101200130EEECF60
:104A3000DBFF140EEDCFDBFF130EDBCF59F0140EAE
:104A4000DBCF5AF00001800E5A141200F70EDBCFB4
:104A50005DF0F80EDBCF5EF01200050EDB50E66E67
:104A6000D950130F01D9E552E750EE6EED6A1200EE
:104A70000A0EDBCF04F00B0EDBCF05F00C0EDBCF04
:104A800006F00D0EDBCF07F01200DBCFE6FF150EB0
:104A9000DBCFE6FF050EDB50E552E724E552E724C5
:104AA0001200DB50CED8010EF36E060EF3CFDBFF03
:104AB0001200EE50EFCFEAFFE96E5BC0EEFF5CC084
:104AC000EEFF5DC0EEFF1200D9CFE6FFDACFE6FFC2
:104AD000E1CFD9FFE2CFDAFF1200DFCFE6FFE66ACF
:104AE0005EEC2DF0E552E552F3501200E76E080E31
:104AF000E7CFDBFF1200EECF59F0EECF5AF0EFCF49
:104B00005BF05C6A1200050EDBCF59F0150EDB502E
:104B1000D88059541200010EDBCF5BF0020EDBCFC0
:104B20005CF05D6A1200E552E5CFDAFFE7CFD9FF0E
:104B300012000A0E59C0DBFF0B0E5AC0DBFF120039
:104B4000D9500A0F34EF26F0F36E070EF3CFDBFFD8
:104B50001200EECF59F0EFCF5AF01200010EDB2A0F
:104B6000020E1200FC0EDBCFE6FFFD0EDBCFE6FFF0
:104B70001200595E000E5A5AF70E59C0DBFFF80EAC
:104B80005AC0DBFF59C0E9FF5AC0EAFF1200DA2021
:104B9000EA6EEF2AEECFF6FF000EEF22EECFF7FF20
:104BA000EF22EECFF8FF1200040EDBCFE6FF130E6C
:104BB000DB50E552E75C9ADFDB5004DF060EDB508A
:104BC0001200090EDB500A0DF350DF24D00FE76E00
:104BD000090EE7CFDBFFCCEF24F0DB50F36E050EC0
:104BE000FAEF24F0F70EDBCF59F0F80EDBCF5AF0D6
:104BF0001200DFCFE6FFD6EF24F028DF030EECDE55
:104C00007BEF25F028EC20F0E552E552E552E55225
:104C100000091200BDDEEE50EFCFEAFFE96E010E93
:104C20001200130EDB50F36E040EFAEF24F0040EA4
:104C3000DB50F36E090EFAEF24F0DBCFE6FFD6EF80
:104C400024F0E76E050EE7CFDBFF12008BDFF9EFF4
:104C500025F0DBCFE6FF86DF02EF26F0D950F90F13
:104C6000E96EFF0EC7EF25F0E96E000EDA20EA6E5E
:024C7000120030
:0E4C7200D9CFE6FFE1CFD9FFFE0EDB5002E006
:104C8000C00E01D0800EE66E30EC08F0E552300E1A
:104C900001010025E66E32EC08F0E552200EE66ECA
:104CA00032EC08F0E552300E01010125E66E32ECDF
:104CB00008F0E552200EE66E32EC08F0E552640E84
:104CC000596E0C6E02C107F0BAEC2DF00750300F90
:104CD000E66E32EC08F0E5520A0E5A6E596E0C6E12
:104CE00002C107F0BAEC2DF05AC00CF0BAEC2DF06E
:104CF0000350300FE66E32EC08F0E5520A0E596EA2
:104D00000C6E02C107F0BAEC2DF00350300FE66EC6
:104D100032EC08F0E552200EE66E32EC08F0E55277
:104D200003C1E6FF36EC08F0E552200EE66E32ECE9
:104D300008F0E55204C1E6FF36EC08F0E552200E1B
:104D4000E66E32EC08F0E552E552E7CFD9FF1200EB
:104D5000D9CFE6FFE1CFD9FFE652FE0EDBCF01F15E
:104D6000DB50060A4DE0010A4BE0020A3FE0010A6F
:104D700012E0060A09E0010A07E0020A46E1010121
:104D8000020E006F026B41D00101020E006FFD0E9A
:104D9000DBCF02F13AD00101030E006FFE0E026F6D
:104DA0000B0E036F0001695130E001010B0E006F23
:104DB000DF6A080EDF5C29E2DF50E76EFB0EDBCF17
:104DC000E9FFFC0EDBCFEAFFE750E926000EEA22FE
:104DD000EF50E66E040EDF24EA6A000FE96E010E62
:104DE000EA22E552E750EF6EDF2AE3D70101040E15
:104DF000006FFE0E026F0B0E036FA0C004F105D012
:104E00000101020E006F03C102F1E66A32DFE552D2
:104E1000000EE66E010EE66E54EC08F0E552E55227
:104E2000E552E552E7CFD9FF1200120000019D2B99
:104E30009D51030801E29D6B9D51040A1EE0070A83
:104E400017E0010A10E0030A09E0010A22E1000E5E
:104E5000E66EE66A010EE66E030E15D0000EE66EF3
:104E6000E66A0B0E0ED0000EE66EE66A0C0E09D056
:104E7000000EE66EE66A0D0E04D0000EE66EE66ADF
:104E80000E0EE66E020EE66E63DFE552E552E55267
:104E9000E55200019D511200D9CFE6FFE1CFD9FFC5
:104EA000FE0EDBCFE6FFE66AE66E050EE66E50DF2D
:104EB000E552E552E552E552E552E7CFD9FF12003F
:104EC000D9CFE6FFE1CFD9FF200EE126FD0EDBCFE3
:104ED000E6FFFE0EDBCFE6FF0B0EE66EE66AA10EE6
:104EE000596E5B0E5A6E5B6A59C0E6FFE66E5BC098
:104EF000E6FFD9CFE6FFDACFE6FFEEEC2BF05C6EF3
:104F0000090EE15E5C50D9CFE6FFDACFE6FFFE0E78
:104F1000E66E040EE66E1CDFE552E552E552E55200
:104F2000596E200EE15C02E2E16AE552E16E5950F1
:104F3000E552E7CFD9FF1200D9CFE6FFE1CFD9FF85
:104F4000E652010EE66E95DEE5520B0E0101025DA2
:104F500004E0025102E0010EACD00151070A01E168
:104F6000A0D0010A01E187D0030A4AE0010A35E036
:104F7000070A1CE0010A09E0030A01E099D0020EC9
:104F8000005D01E095D051DF93D0020E005D01E09D
:104F90008FD00251596E5A6AFE0E591803E15A50C9
:104FA00001E186D0A0C0E6FF77DF15D0020E005DDC
:104FB00001E07ED00251596E5A6AFE0E591805E181
:104FC0005A5003E10101418773D0120EE66E0A0EBA
:104FD000E66E76DFE552E5526BD0030E005D68E0C9
:104FE0000B0E005D0DE1000EE66EE66A03C1E6FF02
:104FF000070EE66EADDEE552E552E552E5524FD0C2
:10500000040E005D55E1DF6A0B0E035DEA6A6A0F6C
:10501000E96E000EEA22EF50310802E1020EDF6E67
:10502000300E0425E66E0B0E035DEA6A6A0FE96E28
:10503000000EEA22E552E750EF6E0B0E035DEA6ABE
:105040006A0FE96E000EEA22EF50310802E0000E0E
:1050500001D0010EDF26DF042BE1000EE66EE66ACA
:1050600003C1E6FF060EE66E73DEE552E552E55239
:10507000E552060E1ED0020E005D1AE1000EE66E2D
:10508000E66A03C1E6FF070EE66E62DEE552E55210
:10509000E552E5520001010E606F0101418D070EDE
:1050A00008D0020E005D04E10001696B0101418D31
:1050B000000EE552E552E7CFD9FF1200D9CFE6FF47
:1050C000E1CFD9FFE652F50EE66E58EC08F0E55256
:1050D000DF6EDF50160A04E0170A0CE1010E0BD058
:1050E000360EE66E5AEC08F0E5523B0EE66E5AECD0
:1050F00008F0E552000EE552E552E7CFD9FF120065
:10510000D9CFE6FFE1CFD9FFE652F50EE66E58ECB7
:1051100008F0E552DF6EDF50110A04E0100A0CE1DE
:10512000010E0BD03A0EE66E5AEC08F0E552340E42
:10513000E66E5AEC08F0E552000EE552E552E7CF74
:10514000D9FF1200D9CFE6FFE1CFD9FF020EE12649
:1051500000018A07000E8B5B8B3504E28A51000840
:10516000000E8B5502E300019E6B00019E51030A65
:1051700036E0010A1DE0030A0AE0010A2FE156DECB
:1051800000019E2B640E00018A6F8B6B28D096DF86
:10519000DF6EDF0424E100019E2B360EE66E5AEC32
:1051A00008F0E552340EE66E5AEC08F0E55217D0DE
:1051B000A7DFDF6EDF0413E1000EE66E010EE66E80
:1051C00052EC08F0E552E552E76E010EE7CFDBFF47
:1051D000DB5005E1B1DE00019E2B01D09E6B020E7B
:1051E000E15C02E2E16AE552E16EE552E7CFD9FF08
:1051F0001200D9CFE6FFE1CFD9FF030EE12600016F
:105200008C07000E8D5B8D3504E28C510008000E7A
:105210008D5502E300019F6B00019F51020A34E0AB
:10522000030A14E0010A36E1360EE66E5AEC08F085
:10523000E5523A0EE66E5AEC08F0E552340EE66E90
:105240005AEC08F0E5520001010E1CD059DFDF6E68
:10525000DF0420E1000EE66E010EE66E52EC08F06F
:10526000E552E552E76E010EE7CFDBFFDB5012E1BE
:1052700063DEE76E020EE7CFDBFFDB50010808E2DA
:105280000001020E9F6F06D019DFDF6EDF0402E11E
:1052900000019F6B030EE15C02E2E16AE552E16E00
:0852A000E552E7CFD9FF12002F
:0852A800300E01014225E66E03
:1052B00032EC08F0E552200EE66E32EC08F0E552D2
:1052C000640E596E0C6E44C107F0BAEC2DF0075015
:1052D000300FE66E32EC08F0E5520A0E5A6E596E47
:1052E0000C6E44C107F0BAEC2DF05AC00CF0BAECC9
:1052F0002DF00350300FE66E32EC08F0E5520A0E46
:10530000596E0C6E44C107F0BAEC2DF00350300F0B
:10531000E66E32EC08F0E552200EE66E32EC08F054
:10532000E552640E596E0C6E45C107F0BAEC2DF0D3
:105330000750300FE66E32EC08F0E5520A0E5A6E56
:10534000596E0C6E45C107F0BAEC2DF05AC00CF046
:10535000BAEC2DF00350300FE66E32EC08F0E55257
:105360000A0E596E0C6E45C107F0BAEC2DF00350D1
:10537000300FE66E32EC08F0E552200EE66E32ECAD
:1053800008F0E552300E01014625E66E32EC08F0D9
:10539000E552300E01014725E66E32EC08F0E55289
:1053A000300E01014825E66E32EC08F0E552300E71
:1053B00001014925E66E32EC08F0E5521200D9CF22
:1053C000E6FFE1CFD9FF0A0EE126DF6A070EF36E92
:1053D000020EF3CFDBFF010EF36E030EF3CFDBFF04
:1053E000020EF36E040EF3CFDBFF030EF36E050E19
:1053F000F3CFDBFF040EF36E060EF3CFDBFF050EDB
:10540000F36E070EF3CFDBFF060EF36E080EF3CF3D
:10541000DBFF070EF36E090EF3CFDBFF360EE66EF1
:105420005AEC08F0E5523B0EE66E5AEC08F0E552F5
:10543000D950020FE66E000EDA20E66E54EC08F04A
:10544000E552E552DF2A010EE66EACEC2DF0E55296
:10545000F50EE66E58EC08F0E552E76E010EE7CF68
:10546000DBFFDB040AE0DF50596E5A6A5A34EAE285
:105470005950C808000E5A54E5E20A0EE15C02E2F7
:10548000E16AE552E16EE552E7CFD9FF1200D9CFCC
:10549000E6FFE1CFD9FF030EE126DE6ADD6A3A0EB0
:1054A000E66E5AEC08F0E552360EE66E5AEC08F05D
:1054B000E552340EE66E5AEC08F0E552DF2A010E92
:1054C00001E3DB2A030EE66E70EC2DF0E552F50EDB
:1054D000E66E58EC08F0E552E76E020EE7CFDBFF10
:1054E000DB0402E1000E0BD0D9CFE9FFDACFEAFFEF
:1054F000640ED880EE54000EED54E0E2010E596EB9
:10550000030EE15C02E2E16AE552E16E5950E552B8
:10551000E7CFD9FF1200D9CFE6FFE1CFD9FF020EC6
:10552000E1260F0148691F0E496F50EC08F0360E56
:10553000E66E5AEC08F0E55220EC08F0F9EC28F0A1
:1055400015EC2BF0F9D720EC08F0A2EC28F04CEC8D
:1055500008F0E76E010EE7CFDBFFF5D7D9CFE6FF06
:10556000E1CFD9FFF90EDBCFE6FFFA0EDBCFE6FF86
:10557000FB0EDBCFE6FFFC0EDBCFE6FFFD0EDBCF45
:10558000E6FFFE0EDBCFE6FF90EC2BF0596E060E29
:10559000E15E5950E552E7CFD9FF12000001A15159
:1055A000110DF3CF28F2F4CF29F27E0E0201282745
:1055B000010E2923080EE66EE66A760EE66E010EEF
:1055C000E66E28C2E9FF29C2EAFF28C259F029C2C3
:1055D0005AF028C2E6FF29C2E6FFC0DF5B6E060E66
:1055E000E15E5B5028C2E9FF29C2EAFF080EE92606
:1055F000000EEA22EE2AEE22EE22EE2228C2E9FF77
:1056000029C2EAFF0C0EE926000EEA22010EEF6E17
:1056100028C2E9FF29C2EAFF0D0EE926000EEA22A0
:0A562000EE2AEE22EE22EE22120026
:06562A00D9CFE6FFE1CF3D
:10563000D9FFE6529584000000000000000083506E
:10564000DF6E949400019851040A45E0070A30E0A7
:10565000010A15E0030A01E057D00001A06B0F0119
:105660008B94D9CFE9FFDACFEAFFEF50040B06E0C5
:105670000001996B9A6B0001020E986F49D00001EE
:10568000992B000E9A230001E80ED8809955030E3D
:105690009A5503E20001030E986FD9CFE9FFDACFE4
:1056A000EAFFEF50040B03E10001010E986F30D0C8
:1056B0000001010EA06F0F018B84D9CFE9FFDACF73
:1056C000EAFFEF50040B06E10001040E986F0001A1
:1056D0009B6B9C6B1DD000019B2B000E9C2300013B
:1056E000E80ED8809B55030E9C5503E20001010E85
:1056F000986FD9CFE9FFDACFEAFFEF50040B03E050
:105700000001030E986F04D00001010E986F00D0C5
:105710000001985100D0E552E552E7CFD9FF1200C1
:10572000D9CFE6FFDACFE6FFFA0EE3CFD9FFFB0EC3
:10573000E3CFDAFFFC0EE3CFE9FFFD0EE3CFEAFF94
:10574000E9CFF3FFEACFF4FFF80EE35003E1F90EDF
:10575000E35008E0F80EE30602E2F90EE306DECFBE
:10576000EEFFF2D7FF0EE3CFDAFFE552FF0EE3CFF5
:10577000D9FFE5521200FE0EE3CFE9FFFF0EE3CFA3
:10578000EAFFF36AF46AEE5203E0F34AF42AFBD725
:105790001200FF0EE3CFF8FFE552FF0EE3CFF7FF55
:1057A000E552FF0EE3CFF6FFE552E66AE66AE66AE7
:1057B0000900F55209E0FD0EE32A05E1FE0EE32A99
:1057C00002E1FF0EE32AF4D7FD0EE3CF05F0FE0E53
:0C57D000E3CF06F0FF0EE3CF07F012005D
:0457DC00D9CFE6FF3C
:1057E000DACFE6FFE1CFD9FFE2CFDAFFE652E652A9
:1057F000E652E652D950F90F596EFF0EDA205A6E72
:10580000020E59C0DBFF030E5AC0DBFF020EDBCFD6
:10581000E6FF030EDBCFE6FFF90EDBCFE6FFFA0E65
:10582000DBCFE6FFFB0EDBCFE6FFD950FC0FE66EC9
:10583000FF0EDA20E66E3EEC20F0596E070EE15CBA
:1058400002E2E16AE552E16E5950F3CFDEFFF4CF98
:10585000DDFFFC0EDBCFE9FFFD0EDBCFEAFFEF6AD9
:10586000DECF59F0DDCF5AF059C0F3FF5AC0F4FF34
:10587000040EE15C02E2E16AE552E16EE552E5CF39
:08588000DAFFE7CFD9FF1200A7
:085888002A0EF66E400EF76EC9
:10589000000EF86E00010900F550936F0900F550F5
:1058A000946F03E1936701D03DD00900F5508E6FEE
:1058B0000900F5508F6F0900F550906F090009003D
:1058C000F550E96E0900F550EA6E0900090009007B
:1058D000F550916F0900F550926F09000900F6CF5D
:1058E00095F0F7CF96F0F8CF97F08EC0F6FF8FC007
:1058F000F7FF90C0F8FF0001915302E1925307E0D7
:105900000900F550EE6E9107F8E29207F9D795C0BD
:10591000F6FF96C0F7FF97C0F8FF00019307000E4F
:06592000945BBFD71200EA
:0A592600D9CFE6FFDACFE6FFE1CFAC
:10593000D9FFE2CFDAFFFB0EDBCF59F0FC0EDBCF55
:105940005AF00001800E5A141AE1FB0EDBCFE9FF7A
:10595000FC0EDBCFEAFFEECFF3FFEDCFF4FFEE2A34
:10596000000EEF22F3CFE9FFF4CFEAFFFD0EDBCF0D
:10597000EFFFEF505A6AF36E5AC0F4FF10D0FB0EDF
:10598000DB50FE0806E1FD0EDBCFE6FF9EEC2DF0BE
:1059900005D0FD0EDBCFE6FFD4EC2DF0E552E5524D
:0A59A000E5CFDAFFE7CFD9FF1200D0
:0659AA0004500902F3CFD6
:1059B00000F0F4CF01F00A02F3500126000EF420AB
:1059C000026E04500B02F3500226000EF420036E08
:1059D00004500C02F350032605500902F35001262F
:1059E000F4500222000E032205500A02F350022650
:1059F000F450032205500B02F3500326065009020F
:105A0000F3500226F450032206500A02F3500326F4
:0A5A100007500902F35003261200AC
:065A1A0007C013F006C0F6
:105A200012F006500B02F4CF05F0F3CF04F007504C
:105A30000C02F4CF07F0F3CF06F00B02F35005266B
:105A4000F4500622E86A072212500C02F350052691
:105A5000F4500622E86A07220CAE33EF2DF0125004
:105A6000065E1350075A13AE000C0B50065E0C5026
:045A7000075A000CC5
:0C5A7400036A026A016A006A200EE76EF5
:105A8000D89004360536063607360036013602361B
:105A900003360950005C0A5001580B5002580C5054
:105AA000035809E30950005E0A50015A0B50025A8C
:0C5AB0000C50035A042AE72EE4D7120021
:045ABC00F36AF46A2B
:105AC000FF0EE124E96EFF0EE220EA6EED6607D0DC
:105AD0002F0EEF6404D03A0EEF6001D0F32A1200CB
:105AE000FF0EE350146E480E01D04C0EE76EE72E09
:105AF000FED7E76AE72EFED7142EF7D70000120074
:105B0000C00EF36E00EE00F00E0E01D81200EA6037
:105B100002D0EE6AFCD7F350E9601200EE6AFCD7BF
:105B20001DEE00F02DEE00F0F86A0F9C44EC2CF016
:0C5B3000D5EC2DF08BEC2AF0FBD7120016
:045B3C00FF0EE35025
:105B4000ADBA04D0B06AAC8EAD8A949CADA2FED73B
:085B5000AE6EF36EF46A120060
:085B5800FF0EE350146E1B0E5A
:105B600000D001D0200EE76EE72EFED7142EFAD714
:045B700000D012004F
:0C5B7400036A080EE76ED890073603366F
:105B80000C50035C02E3036E072AE72EF7D71200DE
:105B900030313233343536373839616263646566A3
:015BA0000004
:065BA10025642C257300B1
:015BA70000FD
:025BA8001200E9
:025BAA001200E7
:035BAC00000000F6
:015BAF0000F5
:045BB00000000000F1
:01FFF800AA5E
:01FFF900F314
:01FFFA009571
:01FFFB00F90C
:01FFFC0043C1
:01FFFD00F80B
:01FFFE00C042
:01FFFF00F110
:00000001FF
