:020000040000FA
:060000006FEF2BF012006F
:044000006FEF2BF043
:06402A0002004E570000E9
:1040300096000000010000004957000095000000B4
:04404000010000007B
:0C4044005EEC25F0FB0EDBCFF3FFDB068B
:10405000F35000090AE0ACEC25F0FA0E17EC26F05C
:10406000F3E15A1CF1E1010E01D0000E8DEF25F0B5
:104070005EEC25F03B0EE12402E3E168E652E16EDE
:10408000010EDB6A020EDB6AF90EDBCFF6FFFA0ED9
:10409000DBCFF7FFFB0EDBCFF8FF0800F550DF6E3C
:1040A000DF5002E1B1EF24F0250EDF5C02E0A4EF67
:1040B00024F0030EDB6A040EDB6A050EDB6A060ED3
:1040C000DB6A070EDB6AC6EC24F02D0EDF5C0CE029
:1040D0002B0EDF5C09E0200EDF5C06E0230EDF5CC8
:1040E00003E0300EDF5C1AE1DF50300A14E0130AFF
:1040F0000FE0030A0AE00B0A05E0060AE4E1030EFA
:10410000DB80E1D7030EDB82DED7030EDB84DBD757
:10411000030EDB86D8D7030EDB88D5D72A0EDF5CEB
:104120001BE1C2EC24F010EC25F010E0030EDB8064
:1041300006680768130EDBCF0BF0140EDBCF0CF014
:10414000FCEC2AF0040E04C0DBFF03D0130EF9ECE4
:1041500024F0C6EC24F00BD0090EDB6A67EC25F0E6
:1041600003E0DBEC25F0FAD7090EF9EC24F0030E9E
:10417000DBB0DB982E0EDF5C1BE1C6EC24F02A0ED0
:10418000DF5C0BE1C2EC24F010EC25F003E1130E30
:104190004BEC25F0C6EC24F00BD0090EDB6A67EC83
:1041A00025F003E0DBEC25F0FAD7090E4BEC25F007
:1041B000680EDF5C07E1C6EC24F0680EDF5C1DE1F1
:1041C000030E18D0740EDF5C17E07A0EDF5C14E08B
:1041D000480EDF5C06E0540EDF5C03E05A0EDF5C45
:1041E00002E1020E07D06C0EDF5C03E06A0EDF5CBA
:1041F00004E1010E9EEC25F0C9DBDF506E0A01E1FF
:104200007FD31E0A01E192D1200A01E18FD13F0A3A
:1042100001E149D11A0A01E146D10D0A01E143D178
:10422000200A01E140D13A0A01E13DD1200A01E131
:104230003AD1260A01E135D10D0A01E132D11A0A3B
:1042400001E1D9D0200A4AE0300A1FE0460A0EE018
:10425000250A01E083D3D950F90FE96EFF0EDA2069
:10426000EA6E010EEE5E000EEE5AEE5AACEC25F050
:10427000250EE66E95DB03E15A1C01E169D3A8EC3B
:1042800025F001E26BD3DB2A69D3080EDB6A040E4A
:10429000DB50010806E2040EDB0470EC25F0DB5075
:1042A0008BDB080EDB5009E0030EDB50010B05E150
:1042B00072DB01E04DD3080EDB6A64DBEFCFDFFF7A
:1042C00020EC26F003E15A1C01E142D3A8EC25F0D2
:1042D00001E3DB2A60DB01E141D33AD3070EDB5077
:1042E00002080FE1ECEC25F0030EB3EC25F00E0E06
:1042F000EECFDBFF0F0EEECFDBFF100EEECFDBFFBE
:1043000020D0F70EDBCF5CF0F80EDBCF5DF0020EB5
:104310005C5E000E5D5AF70E5CC0DBFFF80E5DC000
:10432000DBFF5CC0E9FF5DC0EAFFA3EC25F05B6A40
:104330000E0E59C0DBFF0F0E5AC0DBFF100E5BC024
:10434000DBFF0E0EDBCFE6FF0F0EDBCFE6FF100E1E
:10435000DBCFE6FFB8EC29F0E552E552E552130E4B
:1043600005C0DBFF140E06C0DBFF060EDB5005E0C8
:10437000130EE7EC25F001E26ADB0BEC26F002E21B
:10438000130E37DBCEEC25F006E0040EE7EC25F04B
:1043900002E2050E2EDB030EDBB005D0FCDA01E0F5
:1043A000D7D2080EDB6A090EDB6A0E0EDBCFF6FFF2
:1043B0000F0EDBCFF7FF100EDBCFF8FF0800F55034
:1043C000DF6EDF5014E011EC26F011E220EC26F055
:1043D00003E15A1C01E1BCD2BBDB01E3DB2A090E7D
:1043E000DB2AD9500E0FE96E000ECBDBE7D7D3DA0C
:1043F00001E1B4D2ADD2C6DA110EEECFDBFF120E60
:10440000EDCFDBFF110EDBCFE6FF120EDBCFE6FFB9
:10441000AAEC29F0E552E552130EF3CFDBFF140EA0
:10442000F4CFDBFF060EDB5004E0130ED0DB01E21D
:104430000EDB0BEC26F002E2130EDBDAAFDB05E05D
:10444000040EC5DB02E2050ED4DA030EDBB005D0A4
:10445000A2DA01E07DD2080EDB6A090EDB6A110EDA
:10446000DBCFE9FF120EDBCFEAFFEFCFDFFFDF503C
:1044700014E0D7DB12E2E4DB03E15A1C01E168D26D
:1044800067DB01E3DB2A090EDB2A110EDB2ADBCF17
:10449000E9FF120EE8E3DB2AE6D77DDA01E15ED21E
:1044A00057D2030EDB8E070EDB0410E195DB040E02
:1044B0005ADB0A0EEECFDBFF0B0EEECFDBFF0C0E4E
:1044C000EECFDBFF0D0EEECFDBFF6CD0070EDB5027
:1044D00003082CE1030EDBAE0DD0B2DA020E76DA61
:1044E000EFCF59F05A6A5B6A5C6A59AE39D05A68A4
:1044F0005B6835D0F70EDBCF5AF0F80EDBCF5BF000
:10450000020E5A5E000E5B5AF70E5AC0DBFFF80E21
:104510005BC0DBFF5AC0E9FF5BC0EAFFEFCF59F099
:104520000A0E59C0DBFF0B0EDB6A38D0070EDB50DA
:10453000020809E1030EDBAE04D059DB5BAE10D0FC
:104540000ED055DB0DD0030EDBAE12D079DA020EA1
:104550003DDAF9DA5B6A5C6A5AAE02D05B685C6885
:10456000E2DA0C0E5BC0DBFF0D0E5CC0DBFF1AD085
:10457000F70EDBCF5BF0F80EDBCF5CF0020E5B5E7C
:10458000000E5C5AF70E5BC0DBFFF80E5CC0DBFF71
:104590005BC0E9FF5CC0EAFFD6DAC5DA0C0EDB6A65
:1045A0000D0EDB6A060EDB5005E1010EF36E050E03
:1045B000F3CFDBFF150EDB6A160EDB6AD950370F1F
:1045C000596E000EDA205A6E390E59C0DBFF3A0ED2
:1045D0005AC0DBFF380EDB6A080EDB6A0A0EAEDA61
:1045E000DF50780A12E0200A10E0280A0CE0200AC6
:1045F0000AE03F0A06E00D0A02E0200A08E1020E86
:1046000005D0080E03D0080EDF26100E97DA030E31
:10461000DBBE02D0DB92DB94DB50800B24E08ADA35
:10462000D890030EEB50000A08E6000EEE5C000E78
:10463000EE58000EEE58000EEE5815E213DA096837
:104640000A680B680C68C4EC2AF00A0E00C0DBFF95
:104650000B0E01C0DBFF0C0E02C0DBFF0D0E03C012
:10466000DBFF2D0E08D0030EDBA202D02B0E03D0F1
:10467000DBA408D0200EF36E170EF3CFDBFF150E70
:10468000DB2A02D0170EDB6A050EDB5003E1B7D937
:1046900001E189D0320E596E570E5A6E000E5B6ED4
:1046A000070EDBCF5CF05D6A5E6A5F6A5CC009F092
:1046B0005DC00AF05EC00BF05FC00CF0D3D929ECEE
:1046C0002BF059500024F36E5A500120F46E5B50C9
:1046D0000220F86EF4CFF7FFF3CFF6FF0800090EC3
:1046E000F5CFDBFF580EDF5C0FE1610EF36E090EB4
:1046F0007BD90AE3200E596E090EDBCFE7FF595034
:10470000E75E090EE7CFDBFF070EDBCF59F05A6AF1
:104710005B6A5C6A0FDA59C009F05AC00AF05BC0E4
:104720000BF05CC00CF0EECF04F0EECF05F0EECF56
:1047300006F0EFCF07F029EC2BF007C0EDFF06C025
:10474000EDFF05C0EDFF04C0EFFF390EDBCFE9FF41
:10475000DB063A0EDBCFEAFF01E2DB06090EDBCF18
:10476000EFFF150EDB2A4BD995E1030EDBA61DD01A
:104770006F0EDF5C06E1C1D918E3150EDB285BDAAA
:1047800014D0780EDF5C09E0580EDF5C06E0620EA4
:10479000DF5C03E0420EDF5C08E1020EF36E160EF2
:1047A000F3CFDBFF02D0150EDB6A030EDB50100BDC
:1047B0000EE0040EDBCF59F0050EDB50D8805954C3
:1047C00006E2060EDB5003E1040EDB5034DA95D925
:1047D0000AE2050EDBCFE7FF150EDB50E75E050EA4
:1047E000E7CFDBFF02D0050EDB6A040EDBCF59F00A
:1047F000160E45D9D880595414E2160EDBCFE6FFC9
:10480000150EDBCFE6FF040EDBCFE6FF050EDB5017
:10481000E552E75CE552D880E754E552D880E7548A
:104820005FD9030EDB50010B0BE1080EDB5008E0F3
:10483000B2D801E08DD0080EDB50BED8080EDB6A7E
:10484000170EDB5007E088D9170EF1D903E15A1C87
:1048500001E17ED0160EDB5016E07ED9300EE66EFA
:104860009FD802E15A1C74E077D9DFCFE6FF82ECD3
:104870002AF0E552E552E552F4CF5AF00001F31C5C
:1048800002E15A1C65E0050EDBCF59F0160EDB5035
:10489000D880595409E2050EDBCFE7FF160EDB5036
:1048A000E75E050EE7CFDBFF300EE66E050ECBD9D7
:1048B0004FE1390EDB2ADBCFE9FF3A0E01E3DB2AB9
:1048C000DBCFEAFF090EEFCFDBFFDB500EE044D970
:1048D000090EADD902E15A1C3BE0390EDB2ADBCFD1
:1048E000E9FF3A0EEDE3DB2AEBD755D831E1160E9E
:1048F000DBCFE6FF080EC3D8E552E7245DD82ED003
:10490000070EDB50030A1CE0010A14E0030A07E06B
:104910007BD9DBCFEEFF020EDBCFEDFF1FD0F5D84A
:104920005E6A5CAE02D05D685E682CD8BCD85EC0A2
:10493000EEFF14D0EAD85CBE5D6824D8B4D80ED09F
:1049400063D9DBCFEFFF0AD07BD905E15A1C03E125
:10495000F368F46810D0FCD801E3DB2A79D94DEF75
:1049600020F0010EDBCF59F0020EDBCF5AF059C018
:10497000F3FF5AC0F4FF3B0EE15C02E2E16AE5524C
:10498000E16ECBD029D9020EB3EF25F061D9080032
:10499000F550DF6E1200200EE66E080E23EF26F0B3
:1049A00082EC2AF0E552E552E552F3CF59F0F4CF0C
:1049B0005AF00001F31C1200596E5A6AD950010FC7
:1049C0004DD95950EE265A50ED2212005D5E000E70
:1049D0005E5AF70E5DC0DBFFF80E5EC0DBFF5DC008
:1049E000E9FF5EC0EAFF1200DBCFF4FFF350F45C96
:1049F0001200DB50E76E040EE7CFDBFF12000A0E59
:104A0000DBCF59F00B0EDBCF5AF00C0EDBCF5BF097
:104A10000D0EDBCF5CF059505A105B105C10120089
:104A2000130EEECFDBFF140EEDCFDBFF130EDBCF4B
:104A300059F0140EDBCF5AF00001800E5A14120008
:104A4000F70EDBCF5DF0F80EDBCF5EF01200050E47
:104A5000DB50E66ED950130F01D9E552E750EE6EE8
:104A6000ED6A12000A0EDBCF04F00B0EDBCF05F06F
:104A70000C0EDBCF06F00D0EDBCF07F01200DBCF04
:104A8000E6FF150EDBCFE6FF050EDB50E552E7240F
:104A9000E552E7241200DB50CED8010EF36E060E6D
:104AA000F3CFDBFF1200EE50EFCFEAFFE96E5BC001
:104AB000EEFF5CC0EEFF5DC0EEFF1200D9CFE6FF57
:104AC000DACFE6FFE1CFD9FFE2CFDAFF1200DFCF86
:104AD000E6FFE66A4DEC2BF0E552E552F35012008A
:104AE000E76E080EE7CFDBFF1200EECF59F0EECFF6
:104AF0005AF0EFCF5BF05C6A1200050EDBCF59F085
:104B0000150EDB50D88059541200010EDBCF5BF03C
:104B1000020EDBCF5CF05D6A1200E552E5CFDAFFF2
:104B2000E7CFD9FF12000A0E59C0DBFF0B0E5AC0A7
:104B3000DBFF1200D9500A0F2EEF26F0F36E070E9E
:104B4000F3CFDBFF1200EECF59F0EFCF5AF0120097
:104B5000010EDB2A020E1200FC0EDBCFE6FFFD0E7B
:104B6000DBCFE6FF1200595E000E5A5AF70E59C00D
:104B7000DBFFF80E5AC0DBFF59C0E9FF5AC0EAFF5D
:104B80001200DA20EA6EEF2AEECFF6FF000EEF22D7
:104B9000EECFF7FFEF22EECFF8FF1200040EDBCFCF
:104BA000E6FF130EDB50E552E75C9ADFDB5004DFD3
:104BB000060EDB501200090EDB500A0DF350DF2405
:104BC000D00FE76E090EE7CFDBFFC6EF24F0DB5016
:104BD000F36E050EF4EF24F0F70EDBCF59F0F80E6C
:104BE000DBCF5AF01200DFCFE6FFD0EF24F028DF52
:104BF000030EECDE75EF25F022EC20F0E552E552D5
:104C0000E552E55200091200BDDEEE50EFCFEAFF9B
:104C1000E96E010E1200130EDB50F36E040EF4EF7A
:104C200024F0040EDB50F36E090EF4EF24F0DBCF1A
:104C3000E6FFD0EF24F0E76E050EE7CFDBFF1200B2
:104C40008BDFF3EF25F0DBCFE6FF86DFFCEF25F00F
:104C5000D950F90FE96EFF0EC1EF25F0E96E000E95
:064C6000DA20EA6E1200EA
:0A4C6600300E01014125E66E32EC2C
:104C700008F0E552200EE66E32EC08F0E552640EC4
:104C8000596E0C6E43C107F08BEC2BF00750300FC0
:104C9000E66E32EC08F0E5520A0E5A6E596E0C6E52
:104CA00043C107F08BEC2BF05AC00CF08BEC2BF0CF
:104CB0000350300FE66E32EC08F0E5520A0E596EE2
:104CC0000C6E43C107F08BEC2BF00350300FE66EF7
:104CD00032EC08F0E552200EE66E32EC08F0E552B8
:104CE000640E596E0C6E44C107F08BEC2BF007502C
:104CF000300FE66E32EC08F0E5520A0E5A6E596E2D
:104D00000C6E44C107F08BEC2BF05AC00CF08BEC0E
:104D10002BF00350300FE66E32EC08F0E5520A0E2D
:104D2000596E0C6E44C107F08BEC2BF00350300F22
:104D3000E66E32EC08F0E552200EE66E32EC08F03A
:104D4000E552300E01014525E66E32EC08F0E552E1
:104D5000300E01014625E66E32EC08F0E552300EC9
:104D600001014725E66E32EC08F0E552300E0101F4
:104D70004825E66E32EC08F0E5521200D9CFE6FF86
:104D8000E1CFD9FF0C0EE66EE66AD950F30FE66E5E
:104D9000FF0EDA20E66E000EE66E010EE66E7FEC88
:104DA00029F0596E060EE15E5950E552E7CFD9FF62
:104DB0001200D9CFE6FFE1CFD9FF020EE126F50EB2
:104DC000E66E58EC08F0E552DF6EDF50110A28E07D
:104DD000100A35E1000EE66E010EE66E52EC08F0A8
:104DE000E552E552E76E010EE7CFDBFFDB5022E133
:104DF0000C0EE66EE66A000EE66E010EE66E410EE1
:104E0000E66E010EE66E7FEC29F0596E060EE15E4D
:104E10005950C00EE66E30EC08F0E55224DF0AD09F
:104E20003A0EE66E5AEC08F0E552360EE66E5AEC93
:104E300008F0E552340EE66E5AEC08F0E552020E28
:104E4000E15C02E2E16AE552E16EE552E7CFD9FFAB
:104E50001200010142814283429542974299428B5E
:104E6000428D429F050E416FFE0E436F010E446F4F
:104E70000F0148691F0E496F50EC08F0360EE66EC0
:104E80005AEC08F0E55220EC08F00101402B4051AB
:104E9000596E5A6A5A343CE25950C708000E5A54A7
:104EA00037E241C1E6FF42C1E6FF43C1E6FF44C12C
:104EB000E6FF45C1E6FF46C1E6FF47C1E6FF48C140
:104EC000E6FF49C1E6FF4AC1E6FF4BC1E6FF4CC120
:104ED000E6FF54DF596E0C0EE15E5950800EE66E0F
:104EE00030EC08F0E552BFDE0101406B360EE66E95
:104EF0005AEC08F0E5523B0EE66E5AEC08F0E5522B
:104F0000000EE66E010EE66E54EC08F0E552BAD7DC
:104F100050DFB9D7D9CFE6FFE1CFD9FFF90EDBCF0C
:104F2000E6FFFA0EDBCFE6FFFB0EDBCFE6FFFC0E63
:104F3000DBCFE6FFFD0EDBCFE6FFFE0EDBCFE6FFAD
:104F40007FEC29F0596E060EE15E5950E552E7CF2D
:104F5000D9FF120000019651110DF3CF27F2F4CFC3
:104F600028F27D0E02012727010E2823080EE66E87
:104F7000E66A750EE66E010EE66E27C2E9FF28C2EC
:104F8000EAFF27C259F028C25AF027C2E6FF28C21A
:104F9000E6FFC0DF5B6E060EE15E5B5027C2E9FFF5
:104FA00028C2EAFF080EE926000EEA22EE2AEE22C7
:104FB000EE22EE2227C2E9FF28C2EAFF0C0EE92604
:104FC000000EEA22010EEF6E27C2E9FF28C2EAFFB7
:104FD0000D0EE926000EEA22EE2AEE22EE22EE2245
:024FE0001200BD
:0E4FE200D9CFE6FFE1CFD9FFE652FE0EDBCFBE
:104FF00001F1DB50060A4DE0010A4BE0020A3FE0F6
:10500000010A12E0060A09E0010A07E0020A46E185
:105010000101020E006F026B41D00101020E006F10
:10502000FD0EDBCF02F13AD00101030E006FFE0E40
:10503000026F0B0E036F00016A5130E001010B0E8D
:10504000006FDF6A080EDF5C29E2DF50E76EFB0EBF
:10505000DBCFE9FFFC0EDBCFEAFFE750E926000ECD
:10506000EA22EF50E66E040EDF24EA6A000FE96ED2
:10507000010EEA22E552E750EF6EDF2AE3D7010185
:10508000040E006FFE0E026F0B0E036F60C004F182
:1050900005D00101020E006F03C102F1000EE66EA1
:1050A000010EE66E54EC08F0E552E552E552E55289
:1050B000E7CFD9FF1200120000019551040A1EE04B
:1050C000070A17E0010A10E0030A09E0010A22E1D9
:1050D000000EE66EE66A010EE66E030E15D0000EB7
:1050E000E66EE66A0B0E0ED0000EE66EE66A0C0E59
:1050F00009D0000EE66EE66A0D0E04D0000EE66ED4
:10510000E66A0E0EE66E020EE66E6BDFE552E552C3
:10511000E552E5520001952B9551030801E2956B8C
:105120001200D9CFE6FFE1CFD9FFFE0EDBCFE6FFBD
:10513000E66AE66E050EE66E54DFE552E552E5528C
:10514000E552E552E7CFD9FF1200D9CFE6FFE1CF14
:10515000D9FF200EE126FD0EDBCFE6FFFE0EDBCFF2
:10516000E6FF0B0EE66EE66A430E596E570E5A6E58
:105170005B6A59C0E6FFE66E5BC0E6FFD9CFE6FF8B
:10518000DACFE6FFDDEC29F05C6E090EE15E5C50E3
:10519000D9CFE6FFDACFE6FFFE0EE66E040EE66E2E
:1051A00020DFE552E552E552E552596E200EE15CF2
:1051B00002E2E16AE552E16E5950E552E7CFD9FFCC
:1051C0001200D9CFE6FFE1CFD9FFE6520B0E010165
:1051D000025D06E0025104E0010EF36EF46A8AD02B
:1051E0000151070A01E181D0010A01E177D0030AE8
:1051F0003BE0010A2CE0070A19E0010A08E0030A73
:1052000001E078D0020E005D75E155DF73D0020E2B
:10521000005D70E10251596E5A6AFE0E591802E1A2
:105220005A5068E060C0E6FF7CDF56D0020E005D99
:1052300061E10251596E5A6AFE0E591802E15A5044
:1052400059E0120EE66E0A0EE66E7FDF44D0030EC2
:10525000005D50E00B0E005D07E1000EE66EE66AB1
:1052600003C1E6FF070E33D0040E005D43E1DF6AA1
:105270000B0E035DEA6A6B0FE96E000EEA22EF5037
:10528000310802E1020EDF6E300E0425E66E0B0ED1
:10529000035DEA6A6B0FE96E000EEA22E552E75001
:1052A000EF6E0B0E035DEA6A6B0FE96E000EEA22E9
:1052B000EF50310802E0000E01D0010EDF26DF04BE
:1052C00019E1000EE66EE66A03C1E6FF060EE66E21
:1052D00088DEE552E552E552E5520CD0020E005D43
:1052E00009E10001010E616F05D0020E005D02E1CF
:0E52F00000016A6BE552E552E7CFD9FF1200CC
:0252FE00D9CF06
:10530000E6FFDACFE6FFFA0EE3CFD9FFFB0EE3CFDD
:10531000DAFFFC0EE3CFE9FFFD0EE3CFEAFFE9CFB2
:10532000F3FFEACFF4FFF80EE35003E1F90EE35088
:1053300008E0F80EE30602E2F90EE306DECFEEFF28
:10534000F2D7FF0EE3CFDAFFE552FF0EE3CFD9FF2E
:10535000E5521200FE0EE3CFE9FFFF0EE3CFEAFFB6
:10536000F36AF46AEE5203E0F34AF42AFBD7120020
:10537000FF0EE3CFF8FFE552FF0EE3CFF7FFE55254
:10538000FF0EE3CFF6FFE552E66AE66AE66A090039
:10539000F55209E0FD0EE32A05E1FE0EE32A02E1E3
:1053A000FF0EE32AF4D7FD0EE3CF05F0FE0EE3CFA8
:0A53B00006F0FF0EE3CF07F0120035
:0653BA00D9CFE6FFDACFB7
:1053C000E6FFE1CFD9FFE2CFDAFFE652E652E6523E
:1053D000E652D950F90F596EFF0EDA205A6E020EBE
:1053E00059C0DBFF030E5AC0DBFF020EDBCFE6FF26
:1053F000030EDBCFE6FFF90EDBCFE6FFFA0EDBCFC5
:10540000E6FFFB0EDBCFE6FFD950FC0FE66EFF0E8A
:10541000DA20E66E38EC20F0596E070EE15C02E20D
:10542000E16AE552E16E5950F3CFDEFFF4CFDDFFC4
:10543000FC0EDBCFE9FFFD0EDBCFEAFFEF6ADECF2C
:1054400059F0DDCF5AF059C0F3FF5AC0F4FF040EF3
:10545000E15C02E2E16AE552E16EE552E5CFDAFF96
:06546000E7CFD9FF1200A6
:0A5466002A0EF66E400EF76E000EDF
:10547000F86E00010900F550906F0900F550916F2A
:1054800003E1906701D03DD00900F5508B6F090012
:10549000F5508C6F0900F5508D6F09000900F5502B
:1054A000E96E0900F550EA6E090009000900F5509F
:1054B0008E6F0900F5508F6F09000900F6CF92F04A
:1054C000F7CF93F0F8CF94F08BC0F6FF8CC0F7FFC6
:1054D0008DC0F8FF00018E5302E18F5307E00900F1
:1054E000F550EE6E8E07F8E28F07F9D792C0F6FFFF
:1054F00093C0F7FF94C0F8FF00019007000E915B86
:04550000BFD71200FF
:0C550400D9CFE6FFDACFE6FFE1CFD9FFF8
:10551000E2CFDAFFFB0EDBCF59F0FC0EDBCF5AF007
:105520000001800E5A141AE1FB0EDBCFE9FFFC0EDE
:10553000DBCFEAFFEECFF3FFEDCFF4FFEE2A000E54
:10554000EF22F3CFE9FFF4CFEAFFFD0EDBCFEFFF51
:10555000EF505A6AF36E5AC0F4FF10D0FB0EDB50C6
:10556000FE0806E1FD0EDBCFE6FF7DEC2BF005D05B
:10557000FD0EDBCFE6FFA5EC2BF0E552E552E5CFC3
:08558000DAFFE7CFD9FF1200AA
:0855880004500902F3CF00F00A
:10559000F4CF01F00A02F3500126000EF420026E4F
:1055A00004500B02F3500226000EF420036E045048
:1055B0000C02F350032605500902F3500126F45063
:1055C0000222000E032205500A02F3500226F45074
:1055D000032205500B02F350032606500902F35034
:1055E0000226F450032206500A02F3500326075005
:0855F0000902F350032612002A
:0855F80007C013F006C012F019
:1056000006500B02F4CF05F0F3CF04F007500C0264
:10561000F4CF07F0F3CF06F00B02F3500526F45059
:105620000622E86A072212500C02F3500526F450B5
:105630000622E86A07220CAE22EF2BF01250065E1B
:105640001350075A13AE000C0B50065E0C50075A4D
:02565000000C4C
:0E565200036A026A016A006A200EE76ED890B1
:10566000043605360636073600360136023603366E
:105670000950005C0A5001580B5002580C50035856
:1056800009E30950005E0A50015A0B50025A0C50AF
:0A569000035A042AE72EE4D71200A3
:06569A00F36AF46AFF0E42
:1056A000E124E96EFF0EE220EA6EED6607D02F0ED0
:0E56B000EF6404D03A0EEF6001D0F32A12002E
:0256BE00C00E1C
:1056C000F36E00EE00F00E0E01D81200EA6002D078
:0E56D000EE6AFCD7F350E9601200EE6AFCD7D8
:0256DE001DEEBF
:1056E00000F02DEE00F0F86A0F9C33EC2AF0A6ECE7
:0A56F0002BF029EC27F0FBD7120085
:0656FA00FF0EE350ADBA03
:1057000004D0B06AAC8EAD8A949CADA2FED7AE6ECA
:06571000F36EF46A1200C2
:0A571600036A080EE76ED89007360C
:1057200003360C50035C02E3036E072AE72EF7D71B
:02573000120065
:0E5732003031323334353637383961626364D2
:035740006566009B
:0657430025642C25730013
:01574900005F
:02574A0012004B
:02574C00120049
:01574E00005A
:01FFF800AA5E
:01FFF900F314
:01FFFA009571
:01FFFB00F90C
:01FFFC0043C1
:01FFFD00F80B
:01FFFE00C042
:01FFFF00F110
:00000001FF
